{
  "_format": "hh-sol-artifact-1",
  "contractName": "FanningToyou",
  "sourceName": "contracts/zero.sol",
  "abi": [
    {
      "inputs": [],
      "stateMutability": "nonpayable",
      "type": "constructor"
    },
    {
      "anonymous": false,
      "inputs": [
        {
          "indexed": true,
          "internalType": "address",
          "name": "owner",
          "type": "address"
        },
        {
          "indexed": true,
          "internalType": "address",
          "name": "approved",
          "type": "address"
        },
        {
          "indexed": true,
          "internalType": "uint256",
          "name": "tokenId",
          "type": "uint256"
        }
      ],
      "name": "Approval",
      "type": "event"
    },
    {
      "anonymous": false,
      "inputs": [
        {
          "indexed": true,
          "internalType": "address",
          "name": "owner",
          "type": "address"
        },
        {
          "indexed": true,
          "internalType": "address",
          "name": "operator",
          "type": "address"
        },
        {
          "indexed": false,
          "internalType": "bool",
          "name": "approved",
          "type": "bool"
        }
      ],
      "name": "ApprovalForAll",
      "type": "event"
    },
    {
      "anonymous": false,
      "inputs": [
        {
          "indexed": true,
          "internalType": "address",
          "name": "previousOwner",
          "type": "address"
        },
        {
          "indexed": true,
          "internalType": "address",
          "name": "newOwner",
          "type": "address"
        }
      ],
      "name": "OwnershipTransferred",
      "type": "event"
    },
    {
      "anonymous": false,
      "inputs": [
        {
          "indexed": true,
          "internalType": "address",
          "name": "from",
          "type": "address"
        },
        {
          "indexed": true,
          "internalType": "address",
          "name": "to",
          "type": "address"
        },
        {
          "indexed": true,
          "internalType": "uint256",
          "name": "tokenId",
          "type": "uint256"
        }
      ],
      "name": "Transfer",
      "type": "event"
    },
    {
      "inputs": [
        {
          "internalType": "address",
          "name": "to",
          "type": "address"
        },
        {
          "internalType": "uint256",
          "name": "tokenId",
          "type": "uint256"
        }
      ],
      "name": "approve",
      "outputs": [],
      "stateMutability": "nonpayable",
      "type": "function"
    },
    {
      "inputs": [
        {
          "internalType": "address",
          "name": "owner",
          "type": "address"
        }
      ],
      "name": "balanceOf",
      "outputs": [
        {
          "internalType": "uint256",
          "name": "",
          "type": "uint256"
        }
      ],
      "stateMutability": "view",
      "type": "function"
    },
    {
      "inputs": [
        {
          "internalType": "uint256",
          "name": "tokenId",
          "type": "uint256"
        }
      ],
      "name": "getApproved",
      "outputs": [
        {
          "internalType": "address",
          "name": "",
          "type": "address"
        }
      ],
      "stateMutability": "view",
      "type": "function"
    },
    {
      "inputs": [
        {
          "internalType": "address",
          "name": "owner",
          "type": "address"
        },
        {
          "internalType": "address",
          "name": "operator",
          "type": "address"
        }
      ],
      "name": "isApprovedForAll",
      "outputs": [
        {
          "internalType": "bool",
          "name": "",
          "type": "bool"
        }
      ],
      "stateMutability": "view",
      "type": "function"
    },
    {
      "inputs": [],
      "name": "name",
      "outputs": [
        {
          "internalType": "string",
          "name": "",
          "type": "string"
        }
      ],
      "stateMutability": "view",
      "type": "function"
    },
    {
      "inputs": [],
      "name": "owner",
      "outputs": [
        {
          "internalType": "address",
          "name": "",
          "type": "address"
        }
      ],
      "stateMutability": "view",
      "type": "function"
    },
    {
      "inputs": [
        {
          "internalType": "uint256",
          "name": "tokenId",
          "type": "uint256"
        }
      ],
      "name": "ownerOf",
      "outputs": [
        {
          "internalType": "address",
          "name": "",
          "type": "address"
        }
      ],
      "stateMutability": "view",
      "type": "function"
    },
    {
      "inputs": [],
      "name": "renounceOwnership",
      "outputs": [],
      "stateMutability": "nonpayable",
      "type": "function"
    },
    {
      "inputs": [
        {
          "internalType": "address",
          "name": "to",
          "type": "address"
        },
        {
          "internalType": "uint256",
          "name": "tokenId",
          "type": "uint256"
        },
        {
          "internalType": "string",
          "name": "uri",
          "type": "string"
        }
      ],
      "name": "safeMint",
      "outputs": [],
      "stateMutability": "nonpayable",
      "type": "function"
    },
    {
      "inputs": [
        {
          "internalType": "address",
          "name": "from",
          "type": "address"
        },
        {
          "internalType": "address",
          "name": "to",
          "type": "address"
        },
        {
          "internalType": "uint256",
          "name": "tokenId",
          "type": "uint256"
        }
      ],
      "name": "safeTransferFrom",
      "outputs": [],
      "stateMutability": "nonpayable",
      "type": "function"
    },
    {
      "inputs": [
        {
          "internalType": "address",
          "name": "from",
          "type": "address"
        },
        {
          "internalType": "address",
          "name": "to",
          "type": "address"
        },
        {
          "internalType": "uint256",
          "name": "tokenId",
          "type": "uint256"
        },
        {
          "internalType": "bytes",
          "name": "_data",
          "type": "bytes"
        }
      ],
      "name": "safeTransferFrom",
      "outputs": [],
      "stateMutability": "nonpayable",
      "type": "function"
    },
    {
      "inputs": [
        {
          "internalType": "address",
          "name": "operator",
          "type": "address"
        },
        {
          "internalType": "bool",
          "name": "approved",
          "type": "bool"
        }
      ],
      "name": "setApprovalForAll",
      "outputs": [],
      "stateMutability": "nonpayable",
      "type": "function"
    },
    {
      "inputs": [
        {
          "internalType": "bytes4",
          "name": "interfaceId",
          "type": "bytes4"
        }
      ],
      "name": "supportsInterface",
      "outputs": [
        {
          "internalType": "bool",
          "name": "",
          "type": "bool"
        }
      ],
      "stateMutability": "view",
      "type": "function"
    },
    {
      "inputs": [],
      "name": "symbol",
      "outputs": [
        {
          "internalType": "string",
          "name": "",
          "type": "string"
        }
      ],
      "stateMutability": "view",
      "type": "function"
    },
    {
      "inputs": [
        {
          "internalType": "uint256",
          "name": "tokenId",
          "type": "uint256"
        }
      ],
      "name": "tokenURI",
      "outputs": [
        {
          "internalType": "string",
          "name": "",
          "type": "string"
        }
      ],
      "stateMutability": "view",
      "type": "function"
    },
    {
      "inputs": [
        {
          "internalType": "address",
          "name": "from",
          "type": "address"
        },
        {
          "internalType": "address",
          "name": "to",
          "type": "address"
        },
        {
          "internalType": "uint256",
          "name": "tokenId",
          "type": "uint256"
        }
      ],
      "name": "transferFrom",
      "outputs": [],
      "stateMutability": "nonpayable",
      "type": "function"
    },
    {
      "inputs": [
        {
          "internalType": "address",
          "name": "newOwner",
          "type": "address"
        }
      ],
      "name": "transferOwnership",
      "outputs": [],
      "stateMutability": "nonpayable",
      "type": "function"
    }
  ],
  "bytecode": "0x60806040523480156200001157600080fd5b506040518060400160405280600c81526020017f66616e6e696e67546f796f7500000000000000000000000000000000000000008152506040518060400160405280600381526020017f4d544b0000000000000000000000000000000000000000000000000000000000815250816000908051906020019062000096929190620001a6565b508060019080519060200190620000af929190620001a6565b505050620000d2620000c6620000d860201b60201c565b620000e060201b60201c565b620002bb565b600033905090565b6000600760009054906101000a900473ffffffffffffffffffffffffffffffffffffffff16905081600760006101000a81548173ffffffffffffffffffffffffffffffffffffffff021916908373ffffffffffffffffffffffffffffffffffffffff1602179055508173ffffffffffffffffffffffffffffffffffffffff168173ffffffffffffffffffffffffffffffffffffffff167f8be0079c531659141344cd1fd0a4f28419497f9722a3daafe3b4186f6b6457e060405160405180910390a35050565b828054620001b49062000256565b90600052602060002090601f016020900481019282620001d8576000855562000224565b82601f10620001f357805160ff191683800117855562000224565b8280016001018555821562000224579182015b828111156200022357825182559160200191906001019062000206565b5b50905062000233919062000237565b5090565b5b808211156200025257600081600090555060010162000238565b5090565b600060028204905060018216806200026f57607f821691505b602082108114156200028657620002856200028c565b5b50919050565b7f4e487b7100000000000000000000000000000000000000000000000000000000600052602260045260246000fd5b61307e80620002cb6000396000f3fe608060405234801561001057600080fd5b506004361061010b5760003560e01c8063715018a6116100a2578063b88d4fde11610071578063b88d4fde146102a4578063c87b56dd146102c0578063cd279c7c146102f0578063e985e9c51461030c578063f2fde38b1461033c5761010b565b8063715018a6146102425780638da5cb5b1461024c57806395d89b411461026a578063a22cb465146102885761010b565b806323b872dd116100de57806323b872dd146101aa57806342842e0e146101c65780636352211e146101e257806370a08231146102125761010b565b806301ffc9a71461011057806306fdde0314610140578063081812fc1461015e578063095ea7b31461018e575b600080fd5b61012a60048036038101906101259190611fe8565b610358565b6040516101379190612434565b60405180910390f35b61014861043a565b604051610155919061244f565b60405180910390f35b6101786004803603810190610173919061203a565b6104cc565b60405161018591906123cd565b60405180910390f35b6101a860048036038101906101a39190611f45565b610551565b005b6101c460048036038101906101bf9190611e3f565b610669565b005b6101e060048036038101906101db9190611e3f565b6106c9565b005b6101fc60048036038101906101f7919061203a565b6106e9565b60405161020991906123cd565b60405180910390f35b61022c60048036038101906102279190611dda565b61079b565b60405161023991906126b1565b60405180910390f35b61024a610853565b005b6102546108db565b60405161026191906123cd565b60405180910390f35b610272610905565b60405161027f919061244f565b60405180910390f35b6102a2600480360381019061029d9190611f09565b610997565b005b6102be60048036038101906102b99190611e8e565b6109ad565b005b6102da60048036038101906102d5919061203a565b610a0f565b6040516102e7919061244f565b60405180910390f35b61030a60048036038101906103059190611f81565b610a21565b005b61032660048036038101906103219190611e03565b610ab6565b6040516103339190612434565b60405180910390f35b61035660048036038101906103519190611dda565b610b4a565b005b60007f80ac58cd000000000000000000000000000000000000000000000000000000007bffffffffffffffffffffffffffffffffffffffffffffffffffffffff1916827bffffffffffffffffffffffffffffffffffffffffffffffffffffffff1916148061042357507f5b5e139f000000000000000000000000000000000000000000000000000000007bffffffffffffffffffffffffffffffffffffffffffffffffffffffff1916827bffffffffffffffffffffffffffffffffffffffffffffffffffffffff1916145b80610433575061043282610c42565b5b9050919050565b60606000805461044990612907565b80601f016020809104026020016040519081016040528092919081815260200182805461047590612907565b80156104c25780601f10610497576101008083540402835291602001916104c2565b820191906000526020600020905b8154815290600101906020018083116104a557829003601f168201915b5050505050905090565b60006104d782610cac565b610516576040517f08c379a000000000000000000000000000000000000000000000000000000000815260040161050d90612611565b60405180910390fd5b6004600083815260200190815260200160002060009054906101000a900473ffffffffffffffffffffffffffffffffffffffff169050919050565b600061055c826106e9565b90508073ffffffffffffffffffffffffffffffffffffffff168373ffffffffffffffffffffffffffffffffffffffff1614156105cd576040517f08c379a00000000000000000000000000000000000000000000000000000000081526004016105c490612671565b60405180910390fd5b8073ffffffffffffffffffffffffffffffffffffffff166105ec610d18565b73ffffffffffffffffffffffffffffffffffffffff16148061061b575061061a81610615610d18565b610ab6565b5b61065a576040517f08c379a000000000000000000000000000000000000000000000000000000000815260040161065190612551565b60405180910390fd5b6106648383610d20565b505050565b61067a610674610d18565b82610dd9565b6106b9576040517f08c379a00000000000000000000000000000000000000000000000000000000081526004016106b090612691565b60405180910390fd5b6106c4838383610eb7565b505050565b6106e4838383604051806020016040528060008152506109ad565b505050565b6000806002600084815260200190815260200160002060009054906101000a900473ffffffffffffffffffffffffffffffffffffffff169050600073ffffffffffffffffffffffffffffffffffffffff168173ffffffffffffffffffffffffffffffffffffffff161415610792576040517f08c379a000000000000000000000000000000000000000000000000000000000815260040161078990612591565b60405180910390fd5b80915050919050565b60008073ffffffffffffffffffffffffffffffffffffffff168273ffffffffffffffffffffffffffffffffffffffff16141561080c576040517f08c379a000000000000000000000000000000000000000000000000000000000815260040161080390612571565b60405180910390fd5b600360008373ffffffffffffffffffffffffffffffffffffffff1673ffffffffffffffffffffffffffffffffffffffff168152602001908152602001600020549050919050565b61085b610d18565b73ffffffffffffffffffffffffffffffffffffffff166108796108db565b73ffffffffffffffffffffffffffffffffffffffff16146108cf576040517f08c379a00000000000000000000000000000000000000000000000000000000081526004016108c690612631565b60405180910390fd5b6108d9600061111e565b565b6000600760009054906101000a900473ffffffffffffffffffffffffffffffffffffffff16905090565b60606001805461091490612907565b80601f016020809104026020016040519081016040528092919081815260200182805461094090612907565b801561098d5780601f106109625761010080835404028352916020019161098d565b820191906000526020600020905b81548152906001019060200180831161097057829003601f168201915b5050505050905090565b6109a96109a2610d18565b83836111e4565b5050565b6109be6109b8610d18565b83610dd9565b6109fd576040517f08c379a00000000000000000000000000000000000000000000000000000000081526004016109f490612691565b60405180910390fd5b610a0984848484611351565b50505050565b6060610a1a826113ad565b9050919050565b610a29610d18565b73ffffffffffffffffffffffffffffffffffffffff16610a476108db565b73ffffffffffffffffffffffffffffffffffffffff1614610a9d576040517f08c379a0000000000000000000000000000000000000000000000000000000008152600401610a9490612631565b60405180910390fd5b610aa783836114ff565b610ab1828261151d565b505050565b6000600560008473ffffffffffffffffffffffffffffffffffffffff1673ffffffffffffffffffffffffffffffffffffffff16815260200190815260200160002060008373ffffffffffffffffffffffffffffffffffffffff1673ffffffffffffffffffffffffffffffffffffffff16815260200190815260200160002060009054906101000a900460ff16905092915050565b610b52610d18565b73ffffffffffffffffffffffffffffffffffffffff16610b706108db565b73ffffffffffffffffffffffffffffffffffffffff1614610bc6576040517f08c379a0000000000000000000000000000000000000000000000000000000008152600401610bbd90612631565b60405180910390fd5b600073ffffffffffffffffffffffffffffffffffffffff168173ffffffffffffffffffffffffffffffffffffffff161415610c36576040517f08c379a0000000000000000000000000000000000000000000000000000000008152600401610c2d90612491565b60405180910390fd5b610c3f8161111e565b50565b60007f01ffc9a7000000000000000000000000000000000000000000000000000000007bffffffffffffffffffffffffffffffffffffffffffffffffffffffff1916827bffffffffffffffffffffffffffffffffffffffffffffffffffffffff1916149050919050565b60008073ffffffffffffffffffffffffffffffffffffffff166002600084815260200190815260200160002060009054906101000a900473ffffffffffffffffffffffffffffffffffffffff1673ffffffffffffffffffffffffffffffffffffffff1614159050919050565b600033905090565b816004600083815260200190815260200160002060006101000a81548173ffffffffffffffffffffffffffffffffffffffff021916908373ffffffffffffffffffffffffffffffffffffffff160217905550808273ffffffffffffffffffffffffffffffffffffffff16610d93836106e9565b73ffffffffffffffffffffffffffffffffffffffff167f8c5be1e5ebec7d5bd14f71427d1e84f3dd0314c0f7b2291e5b200ac8c7c3b92560405160405180910390a45050565b6000610de482610cac565b610e23576040517f08c379a0000000000000000000000000000000000000000000000000000000008152600401610e1a90612531565b60405180910390fd5b6000610e2e836106e9565b90508073ffffffffffffffffffffffffffffffffffffffff168473ffffffffffffffffffffffffffffffffffffffff161480610e705750610e6f8185610ab6565b5b80610eae57508373ffffffffffffffffffffffffffffffffffffffff16610e96846104cc565b73ffffffffffffffffffffffffffffffffffffffff16145b91505092915050565b8273ffffffffffffffffffffffffffffffffffffffff16610ed7826106e9565b73ffffffffffffffffffffffffffffffffffffffff1614610f2d576040517f08c379a0000000000000000000000000000000000000000000000000000000008152600401610f24906124b1565b60405180910390fd5b600073ffffffffffffffffffffffffffffffffffffffff168273ffffffffffffffffffffffffffffffffffffffff161415610f9d576040517f08c379a0000000000000000000000000000000000000000000000000000000008152600401610f94906124f1565b60405180910390fd5b610fa8838383611591565b610fb3600082610d20565b6001600360008573ffffffffffffffffffffffffffffffffffffffff1673ffffffffffffffffffffffffffffffffffffffff1681526020019081526020016000206000828254611003919061281d565b925050819055506001600360008473ffffffffffffffffffffffffffffffffffffffff1673ffffffffffffffffffffffffffffffffffffffff168152602001908152602001600020600082825461105a9190612796565b92505081905550816002600083815260200190815260200160002060006101000a81548173ffffffffffffffffffffffffffffffffffffffff021916908373ffffffffffffffffffffffffffffffffffffffff160217905550808273ffffffffffffffffffffffffffffffffffffffff168473ffffffffffffffffffffffffffffffffffffffff167fddf252ad1be2c89b69c2b068fc378daa952ba7f163c4a11628f55a4df523b3ef60405160405180910390a4611119838383611596565b505050565b6000600760009054906101000a900473ffffffffffffffffffffffffffffffffffffffff16905081600760006101000a81548173ffffffffffffffffffffffffffffffffffffffff021916908373ffffffffffffffffffffffffffffffffffffffff1602179055508173ffffffffffffffffffffffffffffffffffffffff168173ffffffffffffffffffffffffffffffffffffffff167f8be0079c531659141344cd1fd0a4f28419497f9722a3daafe3b4186f6b6457e060405160405180910390a35050565b8173ffffffffffffffffffffffffffffffffffffffff168373ffffffffffffffffffffffffffffffffffffffff161415611253576040517f08c379a000000000000000000000000000000000000000000000000000000000815260040161124a90612511565b60405180910390fd5b80600560008573ffffffffffffffffffffffffffffffffffffffff1673ffffffffffffffffffffffffffffffffffffffff16815260200190815260200160002060008473ffffffffffffffffffffffffffffffffffffffff1673ffffffffffffffffffffffffffffffffffffffff16815260200190815260200160002060006101000a81548160ff0219169083151502179055508173ffffffffffffffffffffffffffffffffffffffff168373ffffffffffffffffffffffffffffffffffffffff167f17307eab39ab6107e8899845ad3d59bd9653f200f220920489ca2b5937696c31836040516113449190612434565b60405180910390a3505050565b61135c848484610eb7565b6113688484848461159b565b6113a7576040517f08c379a000000000000000000000000000000000000000000000000000000000815260040161139e90612471565b60405180910390fd5b50505050565b60606113b882610cac565b6113f7576040517f08c379a00000000000000000000000000000000000000000000000000000000081526004016113ee906125f1565b60405180910390fd5b600060066000848152602001908152602001600020805461141790612907565b80601f016020809104026020016040519081016040528092919081815260200182805461144390612907565b80156114905780601f1061146557610100808354040283529160200191611490565b820191906000526020600020905b81548152906001019060200180831161147357829003601f168201915b5050505050905060006114a1611732565b90506000815114156114b75781925050506114fa565b6000825111156114ec5780826040516020016114d49291906123a9565b604051602081830303815290604052925050506114fa565b6114f584611752565b925050505b919050565b6115198282604051806020016040528060008152506117f9565b5050565b61152682610cac565b611565576040517f08c379a000000000000000000000000000000000000000000000000000000000815260040161155c906125b1565b60405180910390fd5b8060066000848152602001908152602001600020908051906020019061158c929190611bfe565b505050565b505050565b505050565b60006115bc8473ffffffffffffffffffffffffffffffffffffffff16611854565b15611725578373ffffffffffffffffffffffffffffffffffffffff1663150b7a026115e5610d18565b8786866040518563ffffffff1660e01b815260040161160794939291906123e8565b602060405180830381600087803b15801561162157600080fd5b505af192505050801561165257506040513d601f19601f8201168201806040525081019061164f9190612011565b60015b6116d5573d8060008114611682576040519150601f19603f3d011682016040523d82523d6000602084013e611687565b606091505b506000815114156116cd576040517f08c379a00000000000000000000000000000000000000000000000000000000081526004016116c490612471565b60405180910390fd5b805181602001fd5b63150b7a0260e01b7bffffffffffffffffffffffffffffffffffffffffffffffffffffffff1916817bffffffffffffffffffffffffffffffffffffffffffffffffffffffff19161491505061172a565b600190505b949350505050565b606060405180608001604052806045815260200161300460459139905090565b606061175d82610cac565b61179c576040517f08c379a000000000000000000000000000000000000000000000000000000000815260040161179390612651565b60405180910390fd5b60006117a6611732565b905060008151116117c657604051806020016040528060008152506117f1565b806117d084611877565b6040516020016117e19291906123a9565b6040516020818303038152906040525b915050919050565b6118038383611a24565b611810600084848461159b565b61184f576040517f08c379a000000000000000000000000000000000000000000000000000000000815260040161184690612471565b60405180910390fd5b505050565b6000808273ffffffffffffffffffffffffffffffffffffffff163b119050919050565b606060008214156118bf576040518060400160405280600181526020017f30000000000000000000000000000000000000000000000000000000000000008152509050611a1f565b600082905060005b600082146118f15780806118da9061296a565b915050600a826118ea91906127ec565b91506118c7565b60008167ffffffffffffffff811115611933577f4e487b7100000000000000000000000000000000000000000000000000000000600052604160045260246000fd5b6040519080825280601f01601f1916602001820160405280156119655781602001600182028036833780820191505090505b5090505b60008514611a185760018261197e919061281d565b9150600a8561198d91906129b3565b60306119999190612796565b60f81b8183815181106119d5577f4e487b7100000000000000000000000000000000000000000000000000000000600052603260045260246000fd5b60200101907effffffffffffffffffffffffffffffffffffffffffffffffffffffffffffff1916908160001a905350600a85611a1191906127ec565b9450611969565b8093505050505b919050565b600073ffffffffffffffffffffffffffffffffffffffff168273ffffffffffffffffffffffffffffffffffffffff161415611a94576040517f08c379a0000000000000000000000000000000000000000000000000000000008152600401611a8b906125d1565b60405180910390fd5b611a9d81610cac565b15611add576040517f08c379a0000000000000000000000000000000000000000000000000000000008152600401611ad4906124d1565b60405180910390fd5b611ae960008383611591565b6001600360008473ffffffffffffffffffffffffffffffffffffffff1673ffffffffffffffffffffffffffffffffffffffff1681526020019081526020016000206000828254611b399190612796565b92505081905550816002600083815260200190815260200160002060006101000a81548173ffffffffffffffffffffffffffffffffffffffff021916908373ffffffffffffffffffffffffffffffffffffffff160217905550808273ffffffffffffffffffffffffffffffffffffffff16600073ffffffffffffffffffffffffffffffffffffffff167fddf252ad1be2c89b69c2b068fc378daa952ba7f163c4a11628f55a4df523b3ef60405160405180910390a4611bfa60008383611596565b5050565b828054611c0a90612907565b90600052602060002090601f016020900481019282611c2c5760008555611c73565b82601f10611c4557805160ff1916838001178555611c73565b82800160010185558215611c73579182015b82811115611c72578251825591602001919060010190611c57565b5b509050611c809190611c84565b5090565b5b80821115611c9d576000816000905550600101611c85565b5090565b6000611cb4611caf846126f1565b6126cc565b905082815260208101848484011115611ccc57600080fd5b611cd78482856128c5565b509392505050565b6000611cf2611ced84612722565b6126cc565b905082815260208101848484011115611d0a57600080fd5b611d158482856128c5565b509392505050565b600081359050611d2c81612fa7565b92915050565b600081359050611d4181612fbe565b92915050565b600081359050611d5681612fd5565b92915050565b600081519050611d6b81612fd5565b92915050565b600082601f830112611d8257600080fd5b8135611d92848260208601611ca1565b91505092915050565b600082601f830112611dac57600080fd5b8135611dbc848260208601611cdf565b91505092915050565b600081359050611dd481612fec565b92915050565b600060208284031215611dec57600080fd5b6000611dfa84828501611d1d565b91505092915050565b60008060408385031215611e1657600080fd5b6000611e2485828601611d1d565b9250506020611e3585828601611d1d565b9150509250929050565b600080600060608486031215611e5457600080fd5b6000611e6286828701611d1d565b9350506020611e7386828701611d1d565b9250506040611e8486828701611dc5565b9150509250925092565b60008060008060808587031215611ea457600080fd5b6000611eb287828801611d1d565b9450506020611ec387828801611d1d565b9350506040611ed487828801611dc5565b925050606085013567ffffffffffffffff811115611ef157600080fd5b611efd87828801611d71565b91505092959194509250565b60008060408385031215611f1c57600080fd5b6000611f2a85828601611d1d565b9250506020611f3b85828601611d32565b9150509250929050565b60008060408385031215611f5857600080fd5b6000611f6685828601611d1d565b9250506020611f7785828601611dc5565b9150509250929050565b600080600060608486031215611f9657600080fd5b6000611fa486828701611d1d565b9350506020611fb586828701611dc5565b925050604084013567ffffffffffffffff811115611fd257600080fd5b611fde86828701611d9b565b9150509250925092565b600060208284031215611ffa57600080fd5b600061200884828501611d47565b91505092915050565b60006020828403121561202357600080fd5b600061203184828501611d5c565b91505092915050565b60006020828403121561204c57600080fd5b600061205a84828501611dc5565b91505092915050565b61206c81612851565b82525050565b61207b81612863565b82525050565b600061208c82612753565b6120968185612769565b93506120a68185602086016128d4565b6120af81612aa0565b840191505092915050565b60006120c58261275e565b6120cf818561277a565b93506120df8185602086016128d4565b6120e881612aa0565b840191505092915050565b60006120fe8261275e565b612108818561278b565b93506121188185602086016128d4565b80840191505092915050565b600061213160328361277a565b915061213c82612ab1565b604082019050919050565b600061215460268361277a565b915061215f82612b00565b604082019050919050565b600061217760258361277a565b915061218282612b4f565b604082019050919050565b600061219a601c8361277a565b91506121a582612b9e565b602082019050919050565b60006121bd60248361277a565b91506121c882612bc7565b604082019050919050565b60006121e060198361277a565b91506121eb82612c16565b602082019050919050565b6000612203602c8361277a565b915061220e82612c3f565b604082019050919050565b600061222660388361277a565b915061223182612c8e565b604082019050919050565b6000612249602a8361277a565b915061225482612cdd565b604082019050919050565b600061226c60298361277a565b915061227782612d2c565b604082019050919050565b600061228f602e8361277a565b915061229a82612d7b565b604082019050919050565b60006122b260208361277a565b91506122bd82612dca565b602082019050919050565b60006122d560318361277a565b91506122e082612df3565b604082019050919050565b60006122f8602c8361277a565b915061230382612e42565b604082019050919050565b600061231b60208361277a565b915061232682612e91565b602082019050919050565b600061233e602f8361277a565b915061234982612eba565b604082019050919050565b600061236160218361277a565b915061236c82612f09565b604082019050919050565b600061238460318361277a565b915061238f82612f58565b604082019050919050565b6123a3816128bb565b82525050565b60006123b582856120f3565b91506123c182846120f3565b91508190509392505050565b60006020820190506123e26000830184612063565b92915050565b60006080820190506123fd6000830187612063565b61240a6020830186612063565b612417604083018561239a565b81810360608301526124298184612081565b905095945050505050565b60006020820190506124496000830184612072565b92915050565b6000602082019050818103600083015261246981846120ba565b905092915050565b6000602082019050818103600083015261248a81612124565b9050919050565b600060208201905081810360008301526124aa81612147565b9050919050565b600060208201905081810360008301526124ca8161216a565b9050919050565b600060208201905081810360008301526124ea8161218d565b9050919050565b6000602082019050818103600083015261250a816121b0565b9050919050565b6000602082019050818103600083015261252a816121d3565b9050919050565b6000602082019050818103600083015261254a816121f6565b9050919050565b6000602082019050818103600083015261256a81612219565b9050919050565b6000602082019050818103600083015261258a8161223c565b9050919050565b600060208201905081810360008301526125aa8161225f565b9050919050565b600060208201905081810360008301526125ca81612282565b9050919050565b600060208201905081810360008301526125ea816122a5565b9050919050565b6000602082019050818103600083015261260a816122c8565b9050919050565b6000602082019050818103600083015261262a816122eb565b9050919050565b6000602082019050818103600083015261264a8161230e565b9050919050565b6000602082019050818103600083015261266a81612331565b9050919050565b6000602082019050818103600083015261268a81612354565b9050919050565b600060208201905081810360008301526126aa81612377565b9050919050565b60006020820190506126c6600083018461239a565b92915050565b60006126d66126e7565b90506126e28282612939565b919050565b6000604051905090565b600067ffffffffffffffff82111561270c5761270b612a71565b5b61271582612aa0565b9050602081019050919050565b600067ffffffffffffffff82111561273d5761273c612a71565b5b61274682612aa0565b9050602081019050919050565b600081519050919050565b600081519050919050565b600082825260208201905092915050565b600082825260208201905092915050565b600081905092915050565b60006127a1826128bb565b91506127ac836128bb565b9250827fffffffffffffffffffffffffffffffffffffffffffffffffffffffffffffffff038211156127e1576127e06129e4565b5b828201905092915050565b60006127f7826128bb565b9150612802836128bb565b92508261281257612811612a13565b5b828204905092915050565b6000612828826128bb565b9150612833836128bb565b925082821015612846576128456129e4565b5b828203905092915050565b600061285c8261289b565b9050919050565b60008115159050919050565b60007fffffffff0000000000000000000000000000000000000000000000000000000082169050919050565b600073ffffffffffffffffffffffffffffffffffffffff82169050919050565b6000819050919050565b82818337600083830152505050565b60005b838110156128f25780820151818401526020810190506128d7565b83811115612901576000848401525b50505050565b6000600282049050600182168061291f57607f821691505b6020821081141561293357612932612a42565b5b50919050565b61294282612aa0565b810181811067ffffffffffffffff8211171561296157612960612a71565b5b80604052505050565b6000612975826128bb565b91507fffffffffffffffffffffffffffffffffffffffffffffffffffffffffffffffff8214156129a8576129a76129e4565b5b600182019050919050565b60006129be826128bb565b91506129c9836128bb565b9250826129d9576129d8612a13565b5b828206905092915050565b7f4e487b7100000000000000000000000000000000000000000000000000000000600052601160045260246000fd5b7f4e487b7100000000000000000000000000000000000000000000000000000000600052601260045260246000fd5b7f4e487b7100000000000000000000000000000000000000000000000000000000600052602260045260246000fd5b7f4e487b7100000000000000000000000000000000000000000000000000000000600052604160045260246000fd5b6000601f19601f8301169050919050565b7f4552433732313a207472616e7366657220746f206e6f6e20455243373231526560008201527f63656976657220696d706c656d656e7465720000000000000000000000000000602082015250565b7f4f776e61626c653a206e6577206f776e657220697320746865207a65726f206160008201527f6464726573730000000000000000000000000000000000000000000000000000602082015250565b7f4552433732313a207472616e736665722066726f6d20696e636f72726563742060008201527f6f776e6572000000000000000000000000000000000000000000000000000000602082015250565b7f4552433732313a20746f6b656e20616c7265616479206d696e74656400000000600082015250565b7f4552433732313a207472616e7366657220746f20746865207a65726f2061646460008201527f7265737300000000000000000000000000000000000000000000000000000000602082015250565b7f4552433732313a20617070726f766520746f2063616c6c657200000000000000600082015250565b7f4552433732313a206f70657261746f7220717565727920666f72206e6f6e657860008201527f697374656e7420746f6b656e0000000000000000000000000000000000000000602082015250565b7f4552433732313a20617070726f76652063616c6c6572206973206e6f74206f7760008201527f6e6572206e6f7220617070726f76656420666f7220616c6c0000000000000000602082015250565b7f4552433732313a2062616c616e636520717565727920666f7220746865207a6560008201527f726f206164647265737300000000000000000000000000000000000000000000602082015250565b7f4552433732313a206f776e657220717565727920666f72206e6f6e657869737460008201527f656e7420746f6b656e0000000000000000000000000000000000000000000000602082015250565b7f45524337323155524953746f726167653a2055524920736574206f66206e6f6e60008201527f6578697374656e7420746f6b656e000000000000000000000000000000000000602082015250565b7f4552433732313a206d696e7420746f20746865207a65726f2061646472657373600082015250565b7f45524337323155524953746f726167653a2055524920717565727920666f722060008201527f6e6f6e6578697374656e7420746f6b656e000000000000000000000000000000602082015250565b7f4552433732313a20617070726f76656420717565727920666f72206e6f6e657860008201527f697374656e7420746f6b656e0000000000000000000000000000000000000000602082015250565b7f4f776e61626c653a2063616c6c6572206973206e6f7420746865206f776e6572600082015250565b7f4552433732314d657461646174613a2055524920717565727920666f72206e6f60008201527f6e6578697374656e7420746f6b656e0000000000000000000000000000000000602082015250565b7f4552433732313a20617070726f76616c20746f2063757272656e74206f776e6560008201527f7200000000000000000000000000000000000000000000000000000000000000602082015250565b7f4552433732313a207472616e736665722063616c6c6572206973206e6f74206f60008201527f776e6572206e6f7220617070726f766564000000000000000000000000000000602082015250565b612fb081612851565b8114612fbb57600080fd5b50565b612fc781612863565b8114612fd257600080fd5b50565b612fde8161286f565b8114612fe957600080fd5b50565b612ff5816128bb565b811461300057600080fd5b5056fe68747470733a2f2f6574682d6d61696e6e65742e616c6368656d796170692e696f2f76322f64704332496679656d475833777963746e304b663859495f34594f634d785a33a26469706673582212208151bd22b8cc76f251fb53b0f4dafdf948cb88de35cddd7805a8eeb14509c3c964736f6c63430008040033",
  "linkReferences": {},
  "deployedLinkReferences": {}
}